{
  "contractName": "FluxTokenCrowdsale",
  "abi": [
    {
      "constant": true,
      "inputs": [],
      "name": "rate",
      "outputs": [
        {
          "name": "",
          "type": "uint256"
        }
      ],
      "payable": false,
      "stateMutability": "view",
      "type": "function"
    },
    {
      "constant": true,
      "inputs": [],
      "name": "cap",
      "outputs": [
        {
          "name": "",
          "type": "uint256"
        }
      ],
      "payable": false,
      "stateMutability": "view",
      "type": "function"
    },
    {
      "constant": true,
      "inputs": [],
      "name": "weiRaised",
      "outputs": [
        {
          "name": "",
          "type": "uint256"
        }
      ],
      "payable": false,
      "stateMutability": "view",
      "type": "function"
    },
    {
      "constant": true,
      "inputs": [],
      "name": "capReached",
      "outputs": [
        {
          "name": "",
          "type": "bool"
        }
      ],
      "payable": false,
      "stateMutability": "view",
      "type": "function"
    },
    {
      "constant": true,
      "inputs": [],
      "name": "wallet",
      "outputs": [
        {
          "name": "",
          "type": "address"
        }
      ],
      "payable": false,
      "stateMutability": "view",
      "type": "function"
    },
    {
      "constant": true,
      "inputs": [],
      "name": "investor_min_cap",
      "outputs": [
        {
          "name": "",
          "type": "uint256"
        }
      ],
      "payable": false,
      "stateMutability": "view",
      "type": "function"
    },
    {
      "constant": true,
      "inputs": [],
      "name": "investor_max_cap",
      "outputs": [
        {
          "name": "",
          "type": "uint256"
        }
      ],
      "payable": false,
      "stateMutability": "view",
      "type": "function"
    },
    {
      "constant": false,
      "inputs": [
        {
          "name": "beneficiary",
          "type": "address"
        }
      ],
      "name": "buyTokens",
      "outputs": [],
      "payable": true,
      "stateMutability": "payable",
      "type": "function"
    },
    {
      "constant": true,
      "inputs": [],
      "name": "token",
      "outputs": [
        {
          "name": "",
          "type": "address"
        }
      ],
      "payable": false,
      "stateMutability": "view",
      "type": "function"
    },
    {
      "inputs": [
        {
          "name": "rate",
          "type": "uint256"
        },
        {
          "name": "wallet",
          "type": "address"
        },
        {
          "name": "token",
          "type": "address"
        },
        {
          "name": "cap",
          "type": "uint256"
        }
      ],
      "payable": false,
      "stateMutability": "nonpayable",
      "type": "constructor"
    },
    {
      "payable": true,
      "stateMutability": "payable",
      "type": "fallback"
    },
    {
      "anonymous": false,
      "inputs": [
        {
          "indexed": true,
          "name": "purchaser",
          "type": "address"
        },
        {
          "indexed": true,
          "name": "beneficiary",
          "type": "address"
        },
        {
          "indexed": false,
          "name": "value",
          "type": "uint256"
        },
        {
          "indexed": false,
          "name": "amount",
          "type": "uint256"
        }
      ],
      "name": "TokensPurchased",
      "type": "event"
    }
  ],
  "bytecode": "0x608060405266071afd498d00006006556801a055690d9db8000060075534801561002857600080fd5b506040516080806108a98339810180604052608081101561004857600080fd5b810190808051906020019092919080519060200190929190805190602001909291908051906020019092919050505080848484600160008190555060008311151561009257600080fd5b600073ffffffffffffffffffffffffffffffffffffffff168273ffffffffffffffffffffffffffffffffffffffff16141515156100ce57600080fd5b600073ffffffffffffffffffffffffffffffffffffffff168173ffffffffffffffffffffffffffffffffffffffff161415151561010a57600080fd5b8260038190555081600260006101000a81548173ffffffffffffffffffffffffffffffffffffffff021916908373ffffffffffffffffffffffffffffffffffffffff16021790555080600160006101000a81548173ffffffffffffffffffffffffffffffffffffffff021916908373ffffffffffffffffffffffffffffffffffffffff1602179055505050506000811115156101a557600080fd5b8060058190555050505050506106e9806101c06000396000f3fe608060405260043610610099576000357c0100000000000000000000000000000000000000000000000000000000900463ffffffff1680632c4e722e146100a4578063355274ea146100cf5780634042b66f146100fa5780634f93594514610125578063521eb2731461015457806394553d72146101ab578063ad1186fd146101d6578063ec8ac4d814610201578063fc0c546a14610245575b6100a23361029c565b005b3480156100b057600080fd5b506100b9610392565b6040518082815260200191505060405180910390f35b3480156100db57600080fd5b506100e461039c565b6040518082815260200191505060405180910390f35b34801561010657600080fd5b5061010f6103a6565b6040518082815260200191505060405180910390f35b34801561013157600080fd5b5061013a6103b0565b604051808215151515815260200191505060405180910390f35b34801561016057600080fd5b506101696103c4565b604051808273ffffffffffffffffffffffffffffffffffffffff1673ffffffffffffffffffffffffffffffffffffffff16815260200191505060405180910390f35b3480156101b757600080fd5b506101c06103ee565b6040518082815260200191505060405180910390f35b3480156101e257600080fd5b506101eb6103f4565b6040518082815260200191505060405180910390f35b6102436004803603602081101561021757600080fd5b81019080803573ffffffffffffffffffffffffffffffffffffffff16906020019092919050505061029c565b005b34801561025157600080fd5b5061025a6103fa565b604051808273ffffffffffffffffffffffffffffffffffffffff1673ffffffffffffffffffffffffffffffffffffffff16815260200191505060405180910390f35b6001600080828254019250508190555060008054905060003490506102c18382610424565b60006102cc82610443565b90506102e38260045461046190919063ffffffff16565b6004819055506102f38482610482565b8373ffffffffffffffffffffffffffffffffffffffff163373ffffffffffffffffffffffffffffffffffffffff167f6faf93231a456e552dbc9961f58d9713ee4f2e69d15f1975b050ef0911053a7b8484604051808381526020018281526020019250505060405180910390a361036a8483610490565b610372610494565b61037c84836104ff565b50506000548114151561038e57600080fd5b5050565b6000600354905090565b6000600554905090565b6000600454905090565b60006005546103bd6103a6565b1015905090565b6000600260009054906101000a900473ffffffffffffffffffffffffffffffffffffffff16905090565b60065481565b60075481565b6000600160009054906101000a900473ffffffffffffffffffffffffffffffffffffffff16905090565b61042e8282610503565b600654811015151561043f57600080fd5b5050565b600061045a6003548361053b90919063ffffffff16565b9050919050565b600080828401905083811015151561047857600080fd5b8091505092915050565b61048c8282610579565b5050565b5050565b600260009054906101000a900473ffffffffffffffffffffffffffffffffffffffff1673ffffffffffffffffffffffffffffffffffffffff166108fc349081150290604051600060405180830381858888f193505050501580156104fc573d6000803e3d6000fd5b50565b5050565b61050d828261066d565b60055461052a8261051c6103a6565b61046190919063ffffffff16565b1115151561053757600080fd5b5050565b60008083141561054e5760009050610573565b6000828402905082848281151561056157fe5b0414151561056e57600080fd5b809150505b92915050565b6105816103fa565b73ffffffffffffffffffffffffffffffffffffffff166340c10f1983836040518363ffffffff167c0100000000000000000000000000000000000000000000000000000000028152600401808373ffffffffffffffffffffffffffffffffffffffff1673ffffffffffffffffffffffffffffffffffffffff16815260200182815260200192505050602060405180830381600087803b15801561062357600080fd5b505af1158015610637573d6000803e3d6000fd5b505050506040513d602081101561064d57600080fd5b8101908080519060200190929190505050151561066957600080fd5b5050565b600073ffffffffffffffffffffffffffffffffffffffff168273ffffffffffffffffffffffffffffffffffffffff16141515156106a957600080fd5b600081141515156106b957600080fd5b505056fea165627a7a72305820dfd40ed4595cf5ffd06480c0fbe41eba079717821abcb88388afc2cff579d0a30029",
  "source": "pragma solidity ^0.5.0;\n\nimport \"/home/beach/node_modules/openzeppelin-solidity/contracts/crowdsale/Crowdsale.sol\";\nimport \"/home/beach/node_modules/openzeppelin-solidity/contracts/crowdsale/emission/MintedCrowdsale.sol\";\nimport \"/home/beach/node_modules/openzeppelin-solidity/contracts/crowdsale/validation/CappedCrowdsale.sol\";\n\ncontract FluxTokenCrowdsale is Crowdsale, MintedCrowdsale, CappedCrowdsale {\n  // Crowdsale contructor\n  // Capped crowdsale constructor\n  constructor(uint256 rate, address payable wallet, IERC20 token, uint256 cap) \n    Crowdsale(rate, wallet, token)\n    CappedCrowdsale(cap)    \n    public { }\n\n\n  /* Setting max and min invesment an investor can contribute\n   * Maximum Contribution Limit = 30 Ether\n   * Minimum Contribution Limit = 0.002 Ether\n   * \n   * This Limit is set not based on per transaction basics but\n   * on total transaction made by a individual account \n   */\n   uint256 public investor_min_cap = 2000000000000000;         // 0.002 * 10^18  --> Expressed in Wei\n   uint256 public investor_max_cap = 30000000000000000000;     // 30 * 10^18\n    \n  /* Extending _perValidatePurchase() function to revoke transaction if invesment amount \n   * is out of min and max cap\n   */\n  function _preValidatePurchase(address beneficiary, uint256 weiAmount) internal view { \n    super._preValidatePurchase(beneficiary, weiAmount);\n\n    // Custom code begins\n    require(weiAmount >= investor_min_cap);\n  }\n  \n}\n",
  "sourcePath": "/home/beach/code_base/contracts/flux_token/contracts/FluxTokenCrowdsale.sol",
  "compiler": {
    "name": "solc",
    "version": "0.5.0+commit.1d4f565a.Emscripten.clang"
  },
  "schemaVersion": "3.0.2",
  "updatedAt": "2019-03-04T23:15:50.713Z",
  "devdoc": {
    "methods": {
      "buyTokens(address)": {
        "details": "low level token purchase ***DO NOT OVERRIDE*** This function has a non-reentrancy guard, so it shouldn't be called by another `nonReentrant` function.",
        "params": {
          "beneficiary": "Recipient of the token purchase"
        }
      },
      "cap()": {
        "return": "the cap of the crowdsale."
      },
      "capReached()": {
        "details": "Checks whether the cap has been reached.",
        "return": "Whether the cap was reached"
      },
      "rate()": {
        "return": "the number of token units a buyer gets per wei."
      },
      "token()": {
        "return": "the token being sold."
      },
      "wallet()": {
        "return": "the address where funds are collected."
      },
      "weiRaised()": {
        "return": "the amount of wei raised."
      }
    }
  },
  "userdoc": {
    "methods": {}
  }
}