{
  "contractName": "FluxTokenCrowdsale",
  "abi": [
    {
      "constant": true,
      "inputs": [],
      "name": "hasClosed",
      "outputs": [
        {
          "name": "",
          "type": "bool"
        }
      ],
      "payable": false,
      "stateMutability": "view",
      "type": "function"
    },
    {
      "constant": true,
      "inputs": [],
      "name": "rate",
      "outputs": [
        {
          "name": "",
          "type": "uint256"
        }
      ],
      "payable": false,
      "stateMutability": "view",
      "type": "function"
    },
    {
      "constant": true,
      "inputs": [],
      "name": "cap",
      "outputs": [
        {
          "name": "",
          "type": "uint256"
        }
      ],
      "payable": false,
      "stateMutability": "view",
      "type": "function"
    },
    {
      "constant": true,
      "inputs": [],
      "name": "weiRaised",
      "outputs": [
        {
          "name": "",
          "type": "uint256"
        }
      ],
      "payable": false,
      "stateMutability": "view",
      "type": "function"
    },
    {
      "constant": true,
      "inputs": [],
      "name": "isOpen",
      "outputs": [
        {
          "name": "",
          "type": "bool"
        }
      ],
      "payable": false,
      "stateMutability": "view",
      "type": "function"
    },
    {
      "constant": true,
      "inputs": [],
      "name": "closingTime",
      "outputs": [
        {
          "name": "",
          "type": "uint256"
        }
      ],
      "payable": false,
      "stateMutability": "view",
      "type": "function"
    },
    {
      "constant": true,
      "inputs": [],
      "name": "capReached",
      "outputs": [
        {
          "name": "",
          "type": "bool"
        }
      ],
      "payable": false,
      "stateMutability": "view",
      "type": "function"
    },
    {
      "constant": true,
      "inputs": [],
      "name": "wallet",
      "outputs": [
        {
          "name": "",
          "type": "address"
        }
      ],
      "payable": false,
      "stateMutability": "view",
      "type": "function"
    },
    {
      "constant": true,
      "inputs": [],
      "name": "investor_min_cap",
      "outputs": [
        {
          "name": "",
          "type": "uint256"
        }
      ],
      "payable": false,
      "stateMutability": "view",
      "type": "function"
    },
    {
      "constant": true,
      "inputs": [],
      "name": "investor_max_cap",
      "outputs": [
        {
          "name": "",
          "type": "uint256"
        }
      ],
      "payable": false,
      "stateMutability": "view",
      "type": "function"
    },
    {
      "constant": true,
      "inputs": [],
      "name": "openingTime",
      "outputs": [
        {
          "name": "",
          "type": "uint256"
        }
      ],
      "payable": false,
      "stateMutability": "view",
      "type": "function"
    },
    {
      "constant": false,
      "inputs": [
        {
          "name": "beneficiary",
          "type": "address"
        }
      ],
      "name": "buyTokens",
      "outputs": [],
      "payable": true,
      "stateMutability": "payable",
      "type": "function"
    },
    {
      "constant": true,
      "inputs": [],
      "name": "token",
      "outputs": [
        {
          "name": "",
          "type": "address"
        }
      ],
      "payable": false,
      "stateMutability": "view",
      "type": "function"
    },
    {
      "inputs": [
        {
          "name": "rate",
          "type": "uint256"
        },
        {
          "name": "wallet",
          "type": "address"
        },
        {
          "name": "token",
          "type": "address"
        },
        {
          "name": "cap",
          "type": "uint256"
        },
        {
          "name": "openingTime",
          "type": "uint256"
        },
        {
          "name": "closingTime",
          "type": "uint256"
        }
      ],
      "payable": false,
      "stateMutability": "nonpayable",
      "type": "constructor"
    },
    {
      "payable": true,
      "stateMutability": "payable",
      "type": "fallback"
    },
    {
      "anonymous": false,
      "inputs": [
        {
          "indexed": true,
          "name": "purchaser",
          "type": "address"
        },
        {
          "indexed": true,
          "name": "beneficiary",
          "type": "address"
        },
        {
          "indexed": false,
          "name": "value",
          "type": "uint256"
        },
        {
          "indexed": false,
          "name": "amount",
          "type": "uint256"
        }
      ],
      "name": "TokensPurchased",
      "type": "event"
    }
  ],
  "bytecode": "0x608060405266071afd498d00006008556801a055690d9db8000060095534801561002857600080fd5b5060405160c080610a2a833981018060405260c081101561004857600080fd5b8101908080519060200190929190805190602001909291908051906020019092919080519060200190929190805190602001909291908051906020019092919050505081818488888860016000819055506000831115156100a857600080fd5b600073ffffffffffffffffffffffffffffffffffffffff168273ffffffffffffffffffffffffffffffffffffffff16141515156100e457600080fd5b600073ffffffffffffffffffffffffffffffffffffffff168173ffffffffffffffffffffffffffffffffffffffff161415151561012057600080fd5b8260038190555081600260006101000a81548173ffffffffffffffffffffffffffffffffffffffff021916908373ffffffffffffffffffffffffffffffffffffffff16021790555080600160006101000a81548173ffffffffffffffffffffffffffffffffffffffff021916908373ffffffffffffffffffffffffffffffffffffffff1602179055505050506000811115156101bb57600080fd5b80600581905550504282101515156101d257600080fd5b81811115156101e057600080fd5b81600681905550806007819055505050505050505050610825806102056000396000f3fe6080604052600436106100c5576000357c0100000000000000000000000000000000000000000000000000000000900463ffffffff1680631515bc2b146100d05780632c4e722e146100ff578063355274ea1461012a5780634042b66f1461015557806347535d7b146101805780634b6753bc146101af5780634f935945146101da578063521eb2731461020957806394553d7214610260578063ad1186fd1461028b578063b7a8807c146102b6578063ec8ac4d8146102e1578063fc0c546a14610325575b6100ce3361037c565b005b3480156100dc57600080fd5b506100e5610472565b604051808215151515815260200191505060405180910390f35b34801561010b57600080fd5b5061011461047e565b6040518082815260200191505060405180910390f35b34801561013657600080fd5b5061013f610488565b6040518082815260200191505060405180910390f35b34801561016157600080fd5b5061016a610492565b6040518082815260200191505060405180910390f35b34801561018c57600080fd5b5061019561049c565b604051808215151515815260200191505060405180910390f35b3480156101bb57600080fd5b506101c46104b7565b6040518082815260200191505060405180910390f35b3480156101e657600080fd5b506101ef6104c1565b604051808215151515815260200191505060405180910390f35b34801561021557600080fd5b5061021e6104d5565b604051808273ffffffffffffffffffffffffffffffffffffffff1673ffffffffffffffffffffffffffffffffffffffff16815260200191505060405180910390f35b34801561026c57600080fd5b506102756104ff565b6040518082815260200191505060405180910390f35b34801561029757600080fd5b506102a0610505565b6040518082815260200191505060405180910390f35b3480156102c257600080fd5b506102cb61050b565b6040518082815260200191505060405180910390f35b610323600480360360208110156102f757600080fd5b81019080803573ffffffffffffffffffffffffffffffffffffffff16906020019092919050505061037c565b005b34801561033157600080fd5b5061033a610515565b604051808273ffffffffffffffffffffffffffffffffffffffff1673ffffffffffffffffffffffffffffffffffffffff16815260200191505060405180910390f35b6001600080828254019250508190555060008054905060003490506103a1838261053f565b60006103ac8261055e565b90506103c38260045461057c90919063ffffffff16565b6004819055506103d3848261059d565b8373ffffffffffffffffffffffffffffffffffffffff163373ffffffffffffffffffffffffffffffffffffffff167f6faf93231a456e552dbc9961f58d9713ee4f2e69d15f1975b050ef0911053a7b8484604051808381526020018281526020019250505060405180910390a361044a84836105ab565b6104526105af565b61045c848361061a565b50506000548114151561046e57600080fd5b5050565b60006007544211905090565b6000600354905090565b6000600554905090565b6000600454905090565b600060065442101580156104b257506007544211155b905090565b6000600754905090565b60006005546104ce610492565b1015905090565b6000600260009054906101000a900473ffffffffffffffffffffffffffffffffffffffff16905090565b60085481565b60095481565b6000600654905090565b6000600160009054906101000a900473ffffffffffffffffffffffffffffffffffffffff16905090565b610549828261061e565b600854811015151561055a57600080fd5b5050565b60006105756003548361063f90919063ffffffff16565b9050919050565b600080828401905083811015151561059357600080fd5b8091505092915050565b6105a7828261067d565b5050565b5050565b600260009054906101000a900473ffffffffffffffffffffffffffffffffffffffff1673ffffffffffffffffffffffffffffffffffffffff166108fc349081150290604051600060405180830381858888f19350505050158015610617573d6000803e3d6000fd5b50565b5050565b61062661049c565b151561063157600080fd5b61063b8282610771565b5050565b6000808314156106525760009050610677565b6000828402905082848281151561066557fe5b0414151561067257600080fd5b809150505b92915050565b610685610515565b73ffffffffffffffffffffffffffffffffffffffff166340c10f1983836040518363ffffffff167c0100000000000000000000000000000000000000000000000000000000028152600401808373ffffffffffffffffffffffffffffffffffffffff1673ffffffffffffffffffffffffffffffffffffffff16815260200182815260200192505050602060405180830381600087803b15801561072757600080fd5b505af115801561073b573d6000803e3d6000fd5b505050506040513d602081101561075157600080fd5b8101908080519060200190929190505050151561076d57600080fd5b5050565b61077b82826107a9565b6005546107988261078a610492565b61057c90919063ffffffff16565b111515156107a557600080fd5b5050565b600073ffffffffffffffffffffffffffffffffffffffff168273ffffffffffffffffffffffffffffffffffffffff16141515156107e557600080fd5b600081141515156107f557600080fd5b505056fea165627a7a723058206f7d7d9fe22bbfbcd24952b23b5ea1acd637ea58fa4f90fd036836253baa58a40029",
  "source": "pragma solidity ^0.5.0;\n\nimport \"/home/beach/node_modules/openzeppelin-solidity/contracts/crowdsale/Crowdsale.sol\";\nimport \"/home/beach/node_modules/openzeppelin-solidity/contracts/crowdsale/emission/MintedCrowdsale.sol\";\nimport \"/home/beach/node_modules/openzeppelin-solidity/contracts/crowdsale/validation/CappedCrowdsale.sol\";\nimport \"/home/beach/node_modules/openzeppelin-solidity/contracts/crowdsale/validation/TimedCrowdsale.sol\";\n\ncontract FluxTokenCrowdsale is Crowdsale, MintedCrowdsale, CappedCrowdsale, TimedCrowdsale {\n  // Crowdsale contructor\n  // Capped crowdsale constructor\n  constructor(uint256 rate, address payable wallet, IERC20 token, uint256 cap, uint256 openingTime, uint256 closingTime) \n    Crowdsale(rate, wallet, token)\n    CappedCrowdsale(cap)\n    TimedCrowdsale(openingTime, closingTime)    \n    public { }\n\n\n  /* Setting max and min invesment an investor can contribute\n   * Maximum Contribution Limit = 30 Ether\n   * Minimum Contribution Limit = 0.002 Ether\n   * \n   * This Limit is set not based on per transaction basics but\n   * on total transaction made by a individual account \n   */\n   uint256 public investor_min_cap = 2000000000000000;         // 0.002 * 10^18  --> Expressed in Wei\n   uint256 public investor_max_cap = 30000000000000000000;     // 30 * 10^18\n    \n  /* Extending _perValidatePurchase() function to revoke transaction if invesment amount \n   * is out of min and max cap\n   */\n  function _preValidatePurchase(address beneficiary, uint256 weiAmount) internal view { \n    super._preValidatePurchase(beneficiary, weiAmount);\n\n    // Custom code begins\n    require(weiAmount >= investor_min_cap);\n  }\n  \n}\n",
  "sourcePath": "/home/beach/code_base/contracts/flux_token/contracts/FluxTokenCrowdsale.sol",
  "compiler": {
    "name": "solc",
    "version": "0.5.0+commit.1d4f565a.Emscripten.clang"
  },
  "schemaVersion": "3.0.2",
  "updatedAt": "2019-03-04T23:41:47.704Z",
  "devdoc": {
    "methods": {
      "buyTokens(address)": {
        "details": "low level token purchase ***DO NOT OVERRIDE*** This function has a non-reentrancy guard, so it shouldn't be called by another `nonReentrant` function.",
        "params": {
          "beneficiary": "Recipient of the token purchase"
        }
      },
      "cap()": {
        "return": "the cap of the crowdsale."
      },
      "capReached()": {
        "details": "Checks whether the cap has been reached.",
        "return": "Whether the cap was reached"
      },
      "closingTime()": {
        "return": "the crowdsale closing time."
      },
      "hasClosed()": {
        "details": "Checks whether the period in which the crowdsale is open has already elapsed.",
        "return": "Whether crowdsale period has elapsed"
      },
      "isOpen()": {
        "return": "true if the crowdsale is open, false otherwise."
      },
      "openingTime()": {
        "return": "the crowdsale opening time."
      },
      "rate()": {
        "return": "the number of token units a buyer gets per wei."
      },
      "token()": {
        "return": "the token being sold."
      },
      "wallet()": {
        "return": "the address where funds are collected."
      },
      "weiRaised()": {
        "return": "the amount of wei raised."
      }
    }
  },
  "userdoc": {
    "methods": {}
  }
}