{
  "contractName": "FluxTokenCrowdsale",
  "abi": [
    {
      "constant": true,
      "inputs": [],
      "name": "rate",
      "outputs": [
        {
          "name": "",
          "type": "uint256"
        }
      ],
      "payable": false,
      "stateMutability": "view",
      "type": "function"
    },
    {
      "constant": false,
      "inputs": [
        {
          "name": "newRate",
          "type": "uint256"
        }
      ],
      "name": "setRate",
      "outputs": [],
      "payable": false,
      "stateMutability": "nonpayable",
      "type": "function"
    },
    {
      "constant": true,
      "inputs": [],
      "name": "cap",
      "outputs": [
        {
          "name": "",
          "type": "uint256"
        }
      ],
      "payable": false,
      "stateMutability": "view",
      "type": "function"
    },
    {
      "constant": true,
      "inputs": [],
      "name": "weiRaised",
      "outputs": [
        {
          "name": "",
          "type": "uint256"
        }
      ],
      "payable": false,
      "stateMutability": "view",
      "type": "function"
    },
    {
      "constant": true,
      "inputs": [],
      "name": "capReached",
      "outputs": [
        {
          "name": "",
          "type": "bool"
        }
      ],
      "payable": false,
      "stateMutability": "view",
      "type": "function"
    },
    {
      "constant": true,
      "inputs": [],
      "name": "wallet",
      "outputs": [
        {
          "name": "",
          "type": "address"
        }
      ],
      "payable": false,
      "stateMutability": "view",
      "type": "function"
    },
    {
      "constant": false,
      "inputs": [],
      "name": "renounceOwnership",
      "outputs": [],
      "payable": false,
      "stateMutability": "nonpayable",
      "type": "function"
    },
    {
      "constant": true,
      "inputs": [],
      "name": "owner",
      "outputs": [
        {
          "name": "",
          "type": "address"
        }
      ],
      "payable": false,
      "stateMutability": "view",
      "type": "function"
    },
    {
      "constant": true,
      "inputs": [],
      "name": "isOwner",
      "outputs": [
        {
          "name": "",
          "type": "bool"
        }
      ],
      "payable": false,
      "stateMutability": "view",
      "type": "function"
    },
    {
      "constant": true,
      "inputs": [],
      "name": "investor_min_cap",
      "outputs": [
        {
          "name": "",
          "type": "uint256"
        }
      ],
      "payable": false,
      "stateMutability": "view",
      "type": "function"
    },
    {
      "constant": true,
      "inputs": [],
      "name": "investor_max_cap",
      "outputs": [
        {
          "name": "",
          "type": "uint256"
        }
      ],
      "payable": false,
      "stateMutability": "view",
      "type": "function"
    },
    {
      "constant": true,
      "inputs": [],
      "name": "stage",
      "outputs": [
        {
          "name": "",
          "type": "uint8"
        }
      ],
      "payable": false,
      "stateMutability": "view",
      "type": "function"
    },
    {
      "constant": false,
      "inputs": [
        {
          "name": "beneficiary",
          "type": "address"
        }
      ],
      "name": "buyTokens",
      "outputs": [],
      "payable": true,
      "stateMutability": "payable",
      "type": "function"
    },
    {
      "constant": false,
      "inputs": [
        {
          "name": "newOwner",
          "type": "address"
        }
      ],
      "name": "transferOwnership",
      "outputs": [],
      "payable": false,
      "stateMutability": "nonpayable",
      "type": "function"
    },
    {
      "constant": true,
      "inputs": [],
      "name": "token",
      "outputs": [
        {
          "name": "",
          "type": "address"
        }
      ],
      "payable": false,
      "stateMutability": "view",
      "type": "function"
    },
    {
      "inputs": [
        {
          "name": "rate",
          "type": "uint256"
        },
        {
          "name": "wallet",
          "type": "address"
        },
        {
          "name": "token",
          "type": "address"
        },
        {
          "name": "cap",
          "type": "uint256"
        }
      ],
      "payable": false,
      "stateMutability": "nonpayable",
      "type": "constructor"
    },
    {
      "payable": true,
      "stateMutability": "payable",
      "type": "fallback"
    },
    {
      "anonymous": false,
      "inputs": [
        {
          "indexed": true,
          "name": "previousOwner",
          "type": "address"
        },
        {
          "indexed": true,
          "name": "newOwner",
          "type": "address"
        }
      ],
      "name": "OwnershipTransferred",
      "type": "event"
    },
    {
      "anonymous": false,
      "inputs": [
        {
          "indexed": true,
          "name": "purchaser",
          "type": "address"
        },
        {
          "indexed": true,
          "name": "beneficiary",
          "type": "address"
        },
        {
          "indexed": false,
          "name": "value",
          "type": "uint256"
        },
        {
          "indexed": false,
          "name": "amount",
          "type": "uint256"
        }
      ],
      "name": "TokensPurchased",
      "type": "event"
    },
    {
      "constant": false,
      "inputs": [
        {
          "name": "stages",
          "type": "uint256"
        }
      ],
      "name": "setCrowdsaleStage",
      "outputs": [],
      "payable": false,
      "stateMutability": "nonpayable",
      "type": "function"
    }
  ],
  "bytecode": "0x60806040526000600660146101000a81548160ff0219169083600181111561002357fe5b021790555066071afd498d00006007556801a055690d9db8000060085534801561004c57600080fd5b50604051608080610ea48339810180604052608081101561006c57600080fd5b81019080805190602001909291908051906020019092919080519060200190929190805190602001909291905050508084848460016000819055506000831115156100b657600080fd5b600073ffffffffffffffffffffffffffffffffffffffff168273ffffffffffffffffffffffffffffffffffffffff16141515156100f257600080fd5b600073ffffffffffffffffffffffffffffffffffffffff168173ffffffffffffffffffffffffffffffffffffffff161415151561012e57600080fd5b8260038190555081600260006101000a81548173ffffffffffffffffffffffffffffffffffffffff021916908373ffffffffffffffffffffffffffffffffffffffff16021790555080600160006101000a81548173ffffffffffffffffffffffffffffffffffffffff021916908373ffffffffffffffffffffffffffffffffffffffff1602179055505050506000811115156101c957600080fd5b806005819055505033600660006101000a81548173ffffffffffffffffffffffffffffffffffffffff021916908373ffffffffffffffffffffffffffffffffffffffff160217905550600660009054906101000a900473ffffffffffffffffffffffffffffffffffffffff1673ffffffffffffffffffffffffffffffffffffffff16600073ffffffffffffffffffffffffffffffffffffffff167f8be0079c531659141344cd1fd0a4f28419497f9722a3daafe3b4186f6b6457e060405160405180910390a350505050610c02806102a26000396000f3fe6080604052600436106100e6576000357c0100000000000000000000000000000000000000000000000000000000900463ffffffff1680632c4e722e146100f157806334fcf4371461011c578063355274ea146101575780634042b66f146101825780634f935945146101ad578063521eb273146101dc578063715018a6146102335780638da5cb5b1461024a5780638f32d59b146102a157806394553d72146102d0578063a997f82f146102fb578063ad1186fd14610336578063c040e6b814610361578063ec8ac4d81461039a578063f2fde38b146103de578063fc0c546a1461042f575b6100ef33610486565b005b3480156100fd57600080fd5b5061010661057c565b6040518082815260200191505060405180910390f35b34801561012857600080fd5b506101556004803603602081101561013f57600080fd5b8101908080359060200190929190505050610586565b005b34801561016357600080fd5b5061016c610590565b6040518082815260200191505060405180910390f35b34801561018e57600080fd5b5061019761059a565b6040518082815260200191505060405180910390f35b3480156101b957600080fd5b506101c26105a4565b604051808215151515815260200191505060405180910390f35b3480156101e857600080fd5b506101f16105b8565b604051808273ffffffffffffffffffffffffffffffffffffffff1673ffffffffffffffffffffffffffffffffffffffff16815260200191505060405180910390f35b34801561023f57600080fd5b506102486105e2565b005b34801561025657600080fd5b5061025f6106b6565b604051808273ffffffffffffffffffffffffffffffffffffffff1673ffffffffffffffffffffffffffffffffffffffff16815260200191505060405180910390f35b3480156102ad57600080fd5b506102b66106e0565b604051808215151515815260200191505060405180910390f35b3480156102dc57600080fd5b506102e5610738565b6040518082815260200191505060405180910390f35b34801561030757600080fd5b506103346004803603602081101561031e57600080fd5b810190808035906020019092919050505061073e565b005b34801561034257600080fd5b5061034b6107df565b6040518082815260200191505060405180910390f35b34801561036d57600080fd5b506103766107e5565b6040518082600181111561038657fe5b60ff16815260200191505060405180910390f35b6103dc600480360360208110156103b057600080fd5b81019080803573ffffffffffffffffffffffffffffffffffffffff169060200190929190505050610486565b005b3480156103ea57600080fd5b5061042d6004803603602081101561040157600080fd5b81019080803573ffffffffffffffffffffffffffffffffffffffff1690602001909291905050506107f8565b005b34801561043b57600080fd5b50610444610817565b604051808273ffffffffffffffffffffffffffffffffffffffff1673ffffffffffffffffffffffffffffffffffffffff16815260200191505060405180910390f35b6001600080828254019250508190555060008054905060003490506104ab8382610841565b60006104b682610860565b90506104cd8260045461087e90919063ffffffff16565b6004819055506104dd848261089f565b8373ffffffffffffffffffffffffffffffffffffffff163373ffffffffffffffffffffffffffffffffffffffff167f6faf93231a456e552dbc9961f58d9713ee4f2e69d15f1975b050ef0911053a7b8484604051808381526020018281526020019250505060405180910390a361055484836108ad565b61055c6108b1565b610566848361091c565b50506000548114151561057857600080fd5b5050565b6000600354905090565b8060038190555050565b6000600554905090565b6000600454905090565b60006005546105b161059a565b1015905090565b6000600260009054906101000a900473ffffffffffffffffffffffffffffffffffffffff16905090565b6105ea6106e0565b15156105f557600080fd5b600073ffffffffffffffffffffffffffffffffffffffff16600660009054906101000a900473ffffffffffffffffffffffffffffffffffffffff1673ffffffffffffffffffffffffffffffffffffffff167f8be0079c531659141344cd1fd0a4f28419497f9722a3daafe3b4186f6b6457e060405160405180910390a36000600660006101000a81548173ffffffffffffffffffffffffffffffffffffffff021916908373ffffffffffffffffffffffffffffffffffffffff160217905550565b6000600660009054906101000a900473ffffffffffffffffffffffffffffffffffffffff16905090565b6000600660009054906101000a900473ffffffffffffffffffffffffffffffffffffffff1673ffffffffffffffffffffffffffffffffffffffff163373ffffffffffffffffffffffffffffffffffffffff1614905090565b60075481565b6107466106e0565b151561075157600080fd5b806000600181111561075f57fe5b1415610799576000600660146101000a81548160ff0219169083600181111561078457fe5b02179055506107946101f4610586565b6107dc565b806001808111156107a657fe5b14156107db576001600660146101000a81548160ff021916908360018111156107cb57fe5b02179055506107da60fa610586565b5b5b50565b60085481565b600660149054906101000a900460ff1681565b6108006106e0565b151561080b57600080fd5b61081481610920565b50565b6000600160009054906101000a900473ffffffffffffffffffffffffffffffffffffffff16905090565b61084b8282610a1c565b600754811015151561085c57600080fd5b5050565b600061087760035483610a5490919063ffffffff16565b9050919050565b600080828401905083811015151561089557600080fd5b8091505092915050565b6108a98282610a92565b5050565b5050565b600260009054906101000a900473ffffffffffffffffffffffffffffffffffffffff1673ffffffffffffffffffffffffffffffffffffffff166108fc349081150290604051600060405180830381858888f19350505050158015610919573d6000803e3d6000fd5b50565b5050565b600073ffffffffffffffffffffffffffffffffffffffff168173ffffffffffffffffffffffffffffffffffffffff161415151561095c57600080fd5b8073ffffffffffffffffffffffffffffffffffffffff16600660009054906101000a900473ffffffffffffffffffffffffffffffffffffffff1673ffffffffffffffffffffffffffffffffffffffff167f8be0079c531659141344cd1fd0a4f28419497f9722a3daafe3b4186f6b6457e060405160405180910390a380600660006101000a81548173ffffffffffffffffffffffffffffffffffffffff021916908373ffffffffffffffffffffffffffffffffffffffff16021790555050565b610a268282610b86565b600554610a4382610a3561059a565b61087e90919063ffffffff16565b11151515610a5057600080fd5b5050565b600080831415610a675760009050610a8c565b60008284029050828482811515610a7a57fe5b04141515610a8757600080fd5b809150505b92915050565b610a9a610817565b73ffffffffffffffffffffffffffffffffffffffff166340c10f1983836040518363ffffffff167c0100000000000000000000000000000000000000000000000000000000028152600401808373ffffffffffffffffffffffffffffffffffffffff1673ffffffffffffffffffffffffffffffffffffffff16815260200182815260200192505050602060405180830381600087803b158015610b3c57600080fd5b505af1158015610b50573d6000803e3d6000fd5b505050506040513d6020811015610b6657600080fd5b81019080805190602001909291905050501515610b8257600080fd5b5050565b600073ffffffffffffffffffffffffffffffffffffffff168273ffffffffffffffffffffffffffffffffffffffff1614151515610bc257600080fd5b60008114151515610bd257600080fd5b505056fea165627a7a72305820f8cba826667b670d354408527adb95754452142e6fb192837fcc2c2866b1d6d50029",
  "source": "pragma solidity ^0.5.0;\n\nimport \"/home/beach/node_modules/openzeppelin-solidity/contracts/crowdsale/Crowdsale.sol\";\nimport \"/home/beach/node_modules/openzeppelin-solidity/contracts/crowdsale/emission/MintedCrowdsale.sol\";\nimport \"/home/beach/node_modules/openzeppelin-solidity/contracts/crowdsale/validation/CappedCrowdsale.sol\";\nimport \"/home/beach/node_modules/openzeppelin-solidity/contracts/crowdsale/validation/TimedCrowdsale.sol\";\nimport \"/home/beach/node_modules/openzeppelin-solidity/contracts/ownership/Ownable.sol\";\n\ncontract FluxTokenCrowdsale is Crowdsale, MintedCrowdsale, CappedCrowdsale, Ownable {\n  // Crowdsale contructor\n  // Capped crowdsale constructor\n  constructor(uint256 rate, address payable wallet, IERC20 token, uint256 cap) \n    Crowdsale(rate, wallet, token)\n    CappedCrowdsale(cap)\n    public { }\n\n\n   /* Crowdsale stages */\n   enum CrowdsaleStages { PreICO, MainICO }\n   \n   // Crowdsale stage\n   CrowdsaleStages public stage = CrowdsaleStages.PreICO;\n\n   /* Only allow admin to chage the crowdsale stages */\n   function setCrowdsaleStage(uint stages) public onlyOwner {\n     if (uint(CrowdsaleStages.PreICO) == stages) {\n       stage = CrowdsaleStages.PreICO;\n       setRate(500);\n     }\n     else if (uint(CrowdsaleStages.MainICO) == stages) {\n       stage = CrowdsaleStages.MainICO;\n       setRate(250);\n     }\n  }\n\n\n  \n  /* Setting max and min invesment an investor can contribute\n   * Maximum Contribution Limit = 30 Ether\n   * Minimum Contribution Limit = 0.002 Ether\n   * \n   * This Limit is set not based on per transaction basics but\n   * on total transaction made by a individual account \n   */\n   uint256 public investor_min_cap = 2000000000000000;         // 0.002 * 10^18  --> Expressed in Wei\n   uint256 public investor_max_cap = 30000000000000000000;     // 30 * 10^18\n    \n  /* Extending _perValidatePurchase() function to revoke transaction if invesment amount \n   * is out of min and max cap\n   */\n  function _preValidatePurchase(address beneficiary, uint256 weiAmount) internal view { \n    super._preValidatePurchase(beneficiary, weiAmount);\n\n    // Custom code begins\n    require(weiAmount >= investor_min_cap);\n  }\n  \n}\n",
  "sourcePath": "/home/beach/code_base/contracts/flux_token/contracts/FluxTokenCrowdsale.sol",
  "compiler": {
    "name": "solc",
    "version": "0.5.0+commit.1d4f565a.Emscripten.clang"
  },
  "schemaVersion": "3.0.2",
  "updatedAt": "2019-03-05T06:36:12.835Z",
  "devdoc": {
    "methods": {
      "buyTokens(address)": {
        "details": "low level token purchase ***DO NOT OVERRIDE*** This function has a non-reentrancy guard, so it shouldn't be called by another `nonReentrant` function.",
        "params": {
          "beneficiary": "Recipient of the token purchase"
        }
      },
      "cap()": {
        "return": "the cap of the crowdsale."
      },
      "capReached()": {
        "details": "Checks whether the cap has been reached.",
        "return": "Whether the cap was reached"
      },
      "isOwner()": {
        "return": "true if `msg.sender` is the owner of the contract."
      },
      "owner()": {
        "return": "the address of the owner."
      },
      "rate()": {
        "return": "the number of token units a buyer gets per wei."
      },
      "renounceOwnership()": {
        "details": "Allows the current owner to relinquish control of the contract."
      },
      "token()": {
        "return": "the token being sold."
      },
      "transferOwnership(address)": {
        "details": "Allows the current owner to transfer control of the contract to a newOwner.",
        "params": {
          "newOwner": "The address to transfer ownership to."
        }
      },
      "wallet()": {
        "return": "the address where funds are collected."
      },
      "weiRaised()": {
        "return": "the amount of wei raised."
      }
    }
  },
  "userdoc": {
    "methods": {
      "renounceOwnership()": {
        "notice": "Renouncing to ownership will leave the contract without an owner. It will not be possible to call the functions with the `onlyOwner` modifier anymore."
      }
    }
  }
}