{
  "contractName": "SlotheeTokenCrowdsale",
  "abi": [
    {
      "constant": true,
      "inputs": [],
      "name": "rate",
      "outputs": [
        {
          "name": "",
          "type": "uint256"
        }
      ],
      "payable": false,
      "stateMutability": "view",
      "type": "function"
    },
    {
      "constant": false,
      "inputs": [
        {
          "name": "newRate",
          "type": "uint256"
        }
      ],
      "name": "setRate",
      "outputs": [],
      "payable": false,
      "stateMutability": "nonpayable",
      "type": "function"
    },
    {
      "constant": true,
      "inputs": [],
      "name": "cap",
      "outputs": [
        {
          "name": "",
          "type": "uint256"
        }
      ],
      "payable": false,
      "stateMutability": "view",
      "type": "function"
    },
    {
      "constant": true,
      "inputs": [],
      "name": "weiRaised",
      "outputs": [
        {
          "name": "",
          "type": "uint256"
        }
      ],
      "payable": false,
      "stateMutability": "view",
      "type": "function"
    },
    {
      "constant": true,
      "inputs": [],
      "name": "capReached",
      "outputs": [
        {
          "name": "",
          "type": "bool"
        }
      ],
      "payable": false,
      "stateMutability": "view",
      "type": "function"
    },
    {
      "constant": true,
      "inputs": [],
      "name": "wallet",
      "outputs": [
        {
          "name": "",
          "type": "address"
        }
      ],
      "payable": false,
      "stateMutability": "view",
      "type": "function"
    },
    {
      "constant": false,
      "inputs": [],
      "name": "renounceOwnership",
      "outputs": [],
      "payable": false,
      "stateMutability": "nonpayable",
      "type": "function"
    },
    {
      "constant": true,
      "inputs": [],
      "name": "owner",
      "outputs": [
        {
          "name": "",
          "type": "address"
        }
      ],
      "payable": false,
      "stateMutability": "view",
      "type": "function"
    },
    {
      "constant": true,
      "inputs": [],
      "name": "isOwner",
      "outputs": [
        {
          "name": "",
          "type": "bool"
        }
      ],
      "payable": false,
      "stateMutability": "view",
      "type": "function"
    },
    {
      "constant": true,
      "inputs": [],
      "name": "investor_min_cap",
      "outputs": [
        {
          "name": "",
          "type": "uint256"
        }
      ],
      "payable": false,
      "stateMutability": "view",
      "type": "function"
    },
    {
      "constant": true,
      "inputs": [],
      "name": "investor_max_cap",
      "outputs": [
        {
          "name": "",
          "type": "uint256"
        }
      ],
      "payable": false,
      "stateMutability": "view",
      "type": "function"
    },
    {
      "constant": true,
      "inputs": [],
      "name": "stage",
      "outputs": [
        {
          "name": "",
          "type": "uint8"
        }
      ],
      "payable": false,
      "stateMutability": "view",
      "type": "function"
    },
    {
      "constant": false,
      "inputs": [
        {
          "name": "beneficiary",
          "type": "address"
        }
      ],
      "name": "buyTokens",
      "outputs": [],
      "payable": true,
      "stateMutability": "payable",
      "type": "function"
    },
    {
      "constant": false,
      "inputs": [
        {
          "name": "newOwner",
          "type": "address"
        }
      ],
      "name": "transferOwnership",
      "outputs": [],
      "payable": false,
      "stateMutability": "nonpayable",
      "type": "function"
    },
    {
      "constant": true,
      "inputs": [],
      "name": "token",
      "outputs": [
        {
          "name": "",
          "type": "address"
        }
      ],
      "payable": false,
      "stateMutability": "view",
      "type": "function"
    },
    {
      "inputs": [
        {
          "name": "rate",
          "type": "uint256"
        },
        {
          "name": "wallet",
          "type": "address"
        },
        {
          "name": "token",
          "type": "address"
        },
        {
          "name": "cap",
          "type": "uint256"
        }
      ],
      "payable": false,
      "stateMutability": "nonpayable",
      "type": "constructor"
    },
    {
      "payable": true,
      "stateMutability": "payable",
      "type": "fallback"
    },
    {
      "anonymous": false,
      "inputs": [
        {
          "indexed": true,
          "name": "previousOwner",
          "type": "address"
        },
        {
          "indexed": true,
          "name": "newOwner",
          "type": "address"
        }
      ],
      "name": "OwnershipTransferred",
      "type": "event"
    },
    {
      "anonymous": false,
      "inputs": [
        {
          "indexed": true,
          "name": "purchaser",
          "type": "address"
        },
        {
          "indexed": true,
          "name": "beneficiary",
          "type": "address"
        },
        {
          "indexed": false,
          "name": "value",
          "type": "uint256"
        },
        {
          "indexed": false,
          "name": "amount",
          "type": "uint256"
        }
      ],
      "name": "TokensPurchased",
      "type": "event"
    },
    {
      "constant": false,
      "inputs": [
        {
          "name": "stages",
          "type": "uint256"
        }
      ],
      "name": "setCrowdsaleStage",
      "outputs": [],
      "payable": false,
      "stateMutability": "nonpayable",
      "type": "function"
    }
  ],
  "bytecode": "0x60806040526000600660146101000a81548160ff0219169083600481111561002357fe5b021790555066071afd498d00006007556801a055690d9db8000060085534801561004c57600080fd5b50604051608080610f808339810180604052608081101561006c57600080fd5b81019080805190602001909291908051906020019092919080519060200190929190805190602001909291905050508084848460016000819055506000831115156100b657600080fd5b600073ffffffffffffffffffffffffffffffffffffffff168273ffffffffffffffffffffffffffffffffffffffff16141515156100f257600080fd5b600073ffffffffffffffffffffffffffffffffffffffff168173ffffffffffffffffffffffffffffffffffffffff161415151561012e57600080fd5b8260038190555081600260006101000a81548173ffffffffffffffffffffffffffffffffffffffff021916908373ffffffffffffffffffffffffffffffffffffffff16021790555080600160006101000a81548173ffffffffffffffffffffffffffffffffffffffff021916908373ffffffffffffffffffffffffffffffffffffffff1602179055505050506000811115156101c957600080fd5b806005819055505033600660006101000a81548173ffffffffffffffffffffffffffffffffffffffff021916908373ffffffffffffffffffffffffffffffffffffffff160217905550600660009054906101000a900473ffffffffffffffffffffffffffffffffffffffff1673ffffffffffffffffffffffffffffffffffffffff16600073ffffffffffffffffffffffffffffffffffffffff167f8be0079c531659141344cd1fd0a4f28419497f9722a3daafe3b4186f6b6457e060405160405180910390a350505050610cde806102a26000396000f3fe6080604052600436106100e6576000357c0100000000000000000000000000000000000000000000000000000000900463ffffffff1680632c4e722e146100f157806334fcf4371461011c578063355274ea146101575780634042b66f146101825780634f935945146101ad578063521eb273146101dc578063715018a6146102335780638da5cb5b1461024a5780638f32d59b146102a157806394553d72146102d0578063a997f82f146102fb578063ad1186fd14610336578063c040e6b814610361578063ec8ac4d81461039a578063f2fde38b146103de578063fc0c546a1461042f575b6100ef33610486565b005b3480156100fd57600080fd5b5061010661057c565b6040518082815260200191505060405180910390f35b34801561012857600080fd5b506101556004803603602081101561013f57600080fd5b8101908080359060200190929190505050610586565b005b34801561016357600080fd5b5061016c610590565b6040518082815260200191505060405180910390f35b34801561018e57600080fd5b5061019761059a565b6040518082815260200191505060405180910390f35b3480156101b957600080fd5b506101c26105a4565b604051808215151515815260200191505060405180910390f35b3480156101e857600080fd5b506101f16105b8565b604051808273ffffffffffffffffffffffffffffffffffffffff1673ffffffffffffffffffffffffffffffffffffffff16815260200191505060405180910390f35b34801561023f57600080fd5b506102486105e2565b005b34801561025657600080fd5b5061025f6106b6565b604051808273ffffffffffffffffffffffffffffffffffffffff1673ffffffffffffffffffffffffffffffffffffffff16815260200191505060405180910390f35b3480156102ad57600080fd5b506102b66106e0565b604051808215151515815260200191505060405180910390f35b3480156102dc57600080fd5b506102e5610738565b6040518082815260200191505060405180910390f35b34801561030757600080fd5b506103346004803603602081101561031e57600080fd5b810190808035906020019092919050505061073e565b005b34801561034257600080fd5b5061034b6108bb565b6040518082815260200191505060405180910390f35b34801561036d57600080fd5b506103766108c1565b6040518082600481111561038657fe5b60ff16815260200191505060405180910390f35b6103dc600480360360208110156103b057600080fd5b81019080803573ffffffffffffffffffffffffffffffffffffffff169060200190929190505050610486565b005b3480156103ea57600080fd5b5061042d6004803603602081101561040157600080fd5b81019080803573ffffffffffffffffffffffffffffffffffffffff1690602001909291905050506108d4565b005b34801561043b57600080fd5b506104446108f3565b604051808273ffffffffffffffffffffffffffffffffffffffff1673ffffffffffffffffffffffffffffffffffffffff16815260200191505060405180910390f35b6001600080828254019250508190555060008054905060003490506104ab838261091d565b60006104b68261093c565b90506104cd8260045461095a90919063ffffffff16565b6004819055506104dd848261097b565b8373ffffffffffffffffffffffffffffffffffffffff163373ffffffffffffffffffffffffffffffffffffffff167f6faf93231a456e552dbc9961f58d9713ee4f2e69d15f1975b050ef0911053a7b8484604051808381526020018281526020019250505060405180910390a36105548483610989565b61055c61098d565b61056684836109f8565b50506000548114151561057857600080fd5b5050565b6000600354905090565b8060038190555050565b6000600554905090565b6000600454905090565b60006005546105b161059a565b1015905090565b6000600260009054906101000a900473ffffffffffffffffffffffffffffffffffffffff16905090565b6105ea6106e0565b15156105f557600080fd5b600073ffffffffffffffffffffffffffffffffffffffff16600660009054906101000a900473ffffffffffffffffffffffffffffffffffffffff1673ffffffffffffffffffffffffffffffffffffffff167f8be0079c531659141344cd1fd0a4f28419497f9722a3daafe3b4186f6b6457e060405160405180910390a36000600660006101000a81548173ffffffffffffffffffffffffffffffffffffffff021916908373ffffffffffffffffffffffffffffffffffffffff160217905550565b6000600660009054906101000a900473ffffffffffffffffffffffffffffffffffffffff16905090565b6000600660009054906101000a900473ffffffffffffffffffffffffffffffffffffffff1673ffffffffffffffffffffffffffffffffffffffff163373ffffffffffffffffffffffffffffffffffffffff1614905090565b60075481565b6107466106e0565b151561075157600080fd5b806000600481111561075f57fe5b1415610799576000600660146101000a81548160ff0219169083600481111561078457fe5b0217905550610794611009610586565b6108b8565b80600160048111156107a757fe5b14156107e1576001600660146101000a81548160ff021916908360048111156107cc57fe5b02179055506107dc610f5e610586565b6108b7565b80600260048111156107ef57fe5b1415610829576002600660146101000a81548160ff0219169083600481111561081457fe5b0217905550610824610eb3610586565b6108b6565b806003600481111561083757fe5b1415610871576003600660146101000a81548160ff0219169083600481111561085c57fe5b021790555061086c610e08610586565b6108b5565b8060048081111561087e57fe5b14156108b4576004600660146101000a81548160ff021916908360048111156108a357fe5b02179055506108b3610d5d610586565b5b5b5b5b5b50565b60085481565b600660149054906101000a900460ff1681565b6108dc6106e0565b15156108e757600080fd5b6108f0816109fc565b50565b6000600160009054906101000a900473ffffffffffffffffffffffffffffffffffffffff16905090565b6109278282610af8565b600754811015151561093857600080fd5b5050565b600061095360035483610b3090919063ffffffff16565b9050919050565b600080828401905083811015151561097157600080fd5b8091505092915050565b6109858282610b6e565b5050565b5050565b600260009054906101000a900473ffffffffffffffffffffffffffffffffffffffff1673ffffffffffffffffffffffffffffffffffffffff166108fc349081150290604051600060405180830381858888f193505050501580156109f5573d6000803e3d6000fd5b50565b5050565b600073ffffffffffffffffffffffffffffffffffffffff168173ffffffffffffffffffffffffffffffffffffffff1614151515610a3857600080fd5b8073ffffffffffffffffffffffffffffffffffffffff16600660009054906101000a900473ffffffffffffffffffffffffffffffffffffffff1673ffffffffffffffffffffffffffffffffffffffff167f8be0079c531659141344cd1fd0a4f28419497f9722a3daafe3b4186f6b6457e060405160405180910390a380600660006101000a81548173ffffffffffffffffffffffffffffffffffffffff021916908373ffffffffffffffffffffffffffffffffffffffff16021790555050565b610b028282610c62565b600554610b1f82610b1161059a565b61095a90919063ffffffff16565b11151515610b2c57600080fd5b5050565b600080831415610b435760009050610b68565b60008284029050828482811515610b5657fe5b04141515610b6357600080fd5b809150505b92915050565b610b766108f3565b73ffffffffffffffffffffffffffffffffffffffff166340c10f1983836040518363ffffffff167c0100000000000000000000000000000000000000000000000000000000028152600401808373ffffffffffffffffffffffffffffffffffffffff1673ffffffffffffffffffffffffffffffffffffffff16815260200182815260200192505050602060405180830381600087803b158015610c1857600080fd5b505af1158015610c2c573d6000803e3d6000fd5b505050506040513d6020811015610c4257600080fd5b81019080805190602001909291905050501515610c5e57600080fd5b5050565b600073ffffffffffffffffffffffffffffffffffffffff168273ffffffffffffffffffffffffffffffffffffffff1614151515610c9e57600080fd5b60008114151515610cae57600080fd5b505056fea165627a7a72305820e0972fa1dd36c471dea82a6443fe52d432d39fe26ca04f937de441609a9f95360029",
  "source": "pragma solidity ^0.5.0;\n\nimport \"../openzeppelin-solidity/contracts/crowdsale/Crowdsale.sol\";\nimport \"../openzeppelin-solidity/contracts/crowdsale/emission/MintedCrowdsale.sol\";\nimport \"../openzeppelin-solidity/contracts/crowdsale/validation/CappedCrowdsale.sol\";\nimport \"../openzeppelin-solidity/contracts/ownership/Ownable.sol\";\n\n// Do not alter the order of the imported extensions\n// Got no idea why Linerization error pops out for changing order\ncontract SlotheeTokenCrowdsale is Crowdsale, MintedCrowdsale, CappedCrowdsale, Ownable {\n  // Crowdsale contructor\n  // Capped crowdsale constructor\n  constructor(uint256 rate, address payable wallet, IERC20 token, uint256 cap) \n    Crowdsale(rate, wallet, token)\n    CappedCrowdsale(cap)\n    public { }\n\n\n   /* Crowdsale stages */\n   enum CrowdsaleStages { PreSale, StageOne, StageTwo, StageThree, StageFour }\n   \n   // Crowdsale stage\n   CrowdsaleStages public stage = CrowdsaleStages.PreSale;\n\n   /* Only allow admin to chage the crowdsale stages\n    * This change in stage is initiated manually by admin \n    * Rate is fixed randomly\n    * DONT FORGET TO CHANGE RATE WHILE PRODUCTION DEPLOYMENT *MAN*\n    */\n   function setCrowdsaleStage(uint stages) public onlyOwner {\n     // Presale\n     if (uint(CrowdsaleStages.PreSale) == stages) {\n       stage = CrowdsaleStages.PreSale;\n       setRate(4105);\n     }\n     // Stage One\n     else if (uint(CrowdsaleStages.StageOne) == stages) {\n       stage = CrowdsaleStages.StageOne;\n       setRate(3934);\n     }\n     // Stage Two\n     else if (uint(CrowdsaleStages.StageTwo) == stages) {\n       stage = CrowdsaleStages.StageTwo;\n       setRate(3763);\n     }\n     // Satge Three\n     else if (uint(CrowdsaleStages.StageThree) == stages) {\n       stage = CrowdsaleStages.StageThree;\n       setRate(3592);\n     }\n     // Stage Four\n     else if (uint(CrowdsaleStages.StageFour) == stages) {\n       stage = CrowdsaleStages.StageFour;\n       setRate(3421);\n     }\n  }\n\n\n  \n  /* Setting max and min invesment an investor can contribute\n   * Maximum Contribution Limit = 30 Ether\n   * Minimum Contribution Limit = 0.002 Ether\n   * \n   * This Limit is set not based on per transaction basics but\n   * on total transaction made by a individual account \n   */\n   uint256 public investor_min_cap = 2000000000000000;         // 0.002 * 10^18  --> Expressed in Wei\n   uint256 public investor_max_cap = 30000000000000000000;     // 30 * 10^18\n    \n  /* Extending _perValidatePurchase() function to revoke transaction if invesment amount \n   * is out of min and max cap\n   */\n  function _preValidatePurchase(address beneficiary, uint256 weiAmount) internal view { \n    super._preValidatePurchase(beneficiary, weiAmount);\n\n    // Custom code begins\n    // Initial  limit for buying tokens is set\n    require(weiAmount >= investor_min_cap);\n    // Shit this error always comes while applying maximum investor limit\n    // PENDING CODE \n  }\n  \n}\n",
  "sourcePath": "/home/beach/code_base/contracts/flux_token/contracts/SlotheetokenCrowdsale.sol",
  "compiler": {
    "name": "solc",
    "version": "0.5.0+commit.1d4f565a.Emscripten.clang"
  },
  "schemaVersion": "3.0.2",
  "updatedAt": "2019-03-05T10:16:50.764Z",
  "devdoc": {
    "methods": {
      "buyTokens(address)": {
        "details": "low level token purchase ***DO NOT OVERRIDE*** This function has a non-reentrancy guard, so it shouldn't be called by another `nonReentrant` function.",
        "params": {
          "beneficiary": "Recipient of the token purchase"
        }
      },
      "cap()": {
        "return": "the cap of the crowdsale."
      },
      "capReached()": {
        "details": "Checks whether the cap has been reached.",
        "return": "Whether the cap was reached"
      },
      "isOwner()": {
        "return": "true if `msg.sender` is the owner of the contract."
      },
      "owner()": {
        "return": "the address of the owner."
      },
      "rate()": {
        "return": "the number of token units a buyer gets per wei."
      },
      "renounceOwnership()": {
        "details": "Allows the current owner to relinquish control of the contract."
      },
      "token()": {
        "return": "the token being sold."
      },
      "transferOwnership(address)": {
        "details": "Allows the current owner to transfer control of the contract to a newOwner.",
        "params": {
          "newOwner": "The address to transfer ownership to."
        }
      },
      "wallet()": {
        "return": "the address where funds are collected."
      },
      "weiRaised()": {
        "return": "the amount of wei raised."
      }
    }
  },
  "userdoc": {
    "methods": {
      "renounceOwnership()": {
        "notice": "Renouncing to ownership will leave the contract without an owner. It will not be possible to call the functions with the `onlyOwner` modifier anymore."
      }
    }
  }
}