{
  "contractName": "SlotheeTokenCrowdsale",
  "abi": [
    {
      "constant": true,
      "inputs": [],
      "name": "rate",
      "outputs": [
        {
          "name": "",
          "type": "uint256"
        }
      ],
      "payable": false,
      "stateMutability": "view",
      "type": "function"
    },
    {
      "constant": true,
      "inputs": [],
      "name": "cap",
      "outputs": [
        {
          "name": "",
          "type": "uint256"
        }
      ],
      "payable": false,
      "stateMutability": "view",
      "type": "function"
    },
    {
      "constant": true,
      "inputs": [],
      "name": "weiRaised",
      "outputs": [
        {
          "name": "",
          "type": "uint256"
        }
      ],
      "payable": false,
      "stateMutability": "view",
      "type": "function"
    },
    {
      "constant": true,
      "inputs": [],
      "name": "capReached",
      "outputs": [
        {
          "name": "",
          "type": "bool"
        }
      ],
      "payable": false,
      "stateMutability": "view",
      "type": "function"
    },
    {
      "constant": true,
      "inputs": [],
      "name": "wallet",
      "outputs": [
        {
          "name": "",
          "type": "address"
        }
      ],
      "payable": false,
      "stateMutability": "view",
      "type": "function"
    },
    {
      "constant": false,
      "inputs": [],
      "name": "renounceOwnership",
      "outputs": [],
      "payable": false,
      "stateMutability": "nonpayable",
      "type": "function"
    },
    {
      "constant": true,
      "inputs": [],
      "name": "owner",
      "outputs": [
        {
          "name": "",
          "type": "address"
        }
      ],
      "payable": false,
      "stateMutability": "view",
      "type": "function"
    },
    {
      "constant": true,
      "inputs": [],
      "name": "isOwner",
      "outputs": [
        {
          "name": "",
          "type": "bool"
        }
      ],
      "payable": false,
      "stateMutability": "view",
      "type": "function"
    },
    {
      "constant": true,
      "inputs": [],
      "name": "investor_min_cap",
      "outputs": [
        {
          "name": "",
          "type": "uint256"
        }
      ],
      "payable": false,
      "stateMutability": "view",
      "type": "function"
    },
    {
      "constant": true,
      "inputs": [],
      "name": "investor_max_cap",
      "outputs": [
        {
          "name": "",
          "type": "uint256"
        }
      ],
      "payable": false,
      "stateMutability": "view",
      "type": "function"
    },
    {
      "constant": true,
      "inputs": [],
      "name": "stage",
      "outputs": [
        {
          "name": "",
          "type": "uint8"
        }
      ],
      "payable": false,
      "stateMutability": "view",
      "type": "function"
    },
    {
      "constant": false,
      "inputs": [
        {
          "name": "beneficiary",
          "type": "address"
        }
      ],
      "name": "buyTokens",
      "outputs": [],
      "payable": true,
      "stateMutability": "payable",
      "type": "function"
    },
    {
      "constant": false,
      "inputs": [
        {
          "name": "newOwner",
          "type": "address"
        }
      ],
      "name": "transferOwnership",
      "outputs": [],
      "payable": false,
      "stateMutability": "nonpayable",
      "type": "function"
    },
    {
      "constant": true,
      "inputs": [],
      "name": "token",
      "outputs": [
        {
          "name": "",
          "type": "address"
        }
      ],
      "payable": false,
      "stateMutability": "view",
      "type": "function"
    },
    {
      "inputs": [
        {
          "name": "rate",
          "type": "uint256"
        },
        {
          "name": "wallet",
          "type": "address"
        },
        {
          "name": "token",
          "type": "address"
        },
        {
          "name": "cap",
          "type": "uint256"
        }
      ],
      "payable": false,
      "stateMutability": "nonpayable",
      "type": "constructor"
    },
    {
      "payable": true,
      "stateMutability": "payable",
      "type": "fallback"
    },
    {
      "anonymous": false,
      "inputs": [
        {
          "indexed": true,
          "name": "previousOwner",
          "type": "address"
        },
        {
          "indexed": true,
          "name": "newOwner",
          "type": "address"
        }
      ],
      "name": "OwnershipTransferred",
      "type": "event"
    },
    {
      "anonymous": false,
      "inputs": [
        {
          "indexed": true,
          "name": "purchaser",
          "type": "address"
        },
        {
          "indexed": true,
          "name": "beneficiary",
          "type": "address"
        },
        {
          "indexed": false,
          "name": "value",
          "type": "uint256"
        },
        {
          "indexed": false,
          "name": "amount",
          "type": "uint256"
        }
      ],
      "name": "TokensPurchased",
      "type": "event"
    },
    {
      "constant": false,
      "inputs": [
        {
          "name": "stages",
          "type": "uint256"
        }
      ],
      "name": "setCrowdsaleStage",
      "outputs": [],
      "payable": false,
      "stateMutability": "nonpayable",
      "type": "function"
    }
  ],
  "bytecode": "0x60806040526000600660146101000a81548160ff0219169083600481111561002357fe5b021790555066071afd498d00006007556801a055690d9db8000060085534801561004c57600080fd5b50604051608080610f3a8339810180604052608081101561006c57600080fd5b81019080805190602001909291908051906020019092919080519060200190929190805190602001909291905050508084848460016000819055506000831115156100b657600080fd5b600073ffffffffffffffffffffffffffffffffffffffff168273ffffffffffffffffffffffffffffffffffffffff16141515156100f257600080fd5b600073ffffffffffffffffffffffffffffffffffffffff168173ffffffffffffffffffffffffffffffffffffffff161415151561012e57600080fd5b8260038190555081600260006101000a81548173ffffffffffffffffffffffffffffffffffffffff021916908373ffffffffffffffffffffffffffffffffffffffff16021790555080600160006101000a81548173ffffffffffffffffffffffffffffffffffffffff021916908373ffffffffffffffffffffffffffffffffffffffff1602179055505050506000811115156101c957600080fd5b806005819055505033600660006101000a81548173ffffffffffffffffffffffffffffffffffffffff021916908373ffffffffffffffffffffffffffffffffffffffff160217905550600660009054906101000a900473ffffffffffffffffffffffffffffffffffffffff1673ffffffffffffffffffffffffffffffffffffffff16600073ffffffffffffffffffffffffffffffffffffffff167f8be0079c531659141344cd1fd0a4f28419497f9722a3daafe3b4186f6b6457e060405160405180910390a350505050610c98806102a26000396000f3fe6080604052600436106100db576000357c0100000000000000000000000000000000000000000000000000000000900463ffffffff1680632c4e722e146100e6578063355274ea146101115780634042b66f1461013c5780634f93594514610167578063521eb27314610196578063715018a6146101ed5780638da5cb5b146102045780638f32d59b1461025b57806394553d721461028a578063a997f82f146102b5578063ad1186fd146102f0578063c040e6b81461031b578063ec8ac4d814610354578063f2fde38b14610398578063fc0c546a146103e9575b6100e433610440565b005b3480156100f257600080fd5b506100fb610536565b6040518082815260200191505060405180910390f35b34801561011d57600080fd5b50610126610540565b6040518082815260200191505060405180910390f35b34801561014857600080fd5b5061015161054a565b6040518082815260200191505060405180910390f35b34801561017357600080fd5b5061017c610554565b604051808215151515815260200191505060405180910390f35b3480156101a257600080fd5b506101ab610568565b604051808273ffffffffffffffffffffffffffffffffffffffff1673ffffffffffffffffffffffffffffffffffffffff16815260200191505060405180910390f35b3480156101f957600080fd5b50610202610592565b005b34801561021057600080fd5b50610219610666565b604051808273ffffffffffffffffffffffffffffffffffffffff1673ffffffffffffffffffffffffffffffffffffffff16815260200191505060405180910390f35b34801561026757600080fd5b50610270610690565b604051808215151515815260200191505060405180910390f35b34801561029657600080fd5b5061029f6106e8565b6040518082815260200191505060405180910390f35b3480156102c157600080fd5b506102ee600480360360208110156102d857600080fd5b81019080803590602001909291905050506106ee565b005b3480156102fc57600080fd5b5061030561086b565b6040518082815260200191505060405180910390f35b34801561032757600080fd5b50610330610871565b6040518082600481111561034057fe5b60ff16815260200191505060405180910390f35b6103966004803603602081101561036a57600080fd5b81019080803573ffffffffffffffffffffffffffffffffffffffff169060200190929190505050610440565b005b3480156103a457600080fd5b506103e7600480360360208110156103bb57600080fd5b81019080803573ffffffffffffffffffffffffffffffffffffffff169060200190929190505050610884565b005b3480156103f557600080fd5b506103fe6108a3565b604051808273ffffffffffffffffffffffffffffffffffffffff1673ffffffffffffffffffffffffffffffffffffffff16815260200191505060405180910390f35b60016000808282540192505081905550600080549050600034905061046583826108cd565b6000610470826108ec565b90506104878260045461090a90919063ffffffff16565b600481905550610497848261092b565b8373ffffffffffffffffffffffffffffffffffffffff163373ffffffffffffffffffffffffffffffffffffffff167f6faf93231a456e552dbc9961f58d9713ee4f2e69d15f1975b050ef0911053a7b8484604051808381526020018281526020019250505060405180910390a361050e8483610939565b61051661093d565b61052084836109a8565b50506000548114151561053257600080fd5b5050565b6000600354905090565b6000600554905090565b6000600454905090565b600060055461056161054a565b1015905090565b6000600260009054906101000a900473ffffffffffffffffffffffffffffffffffffffff16905090565b61059a610690565b15156105a557600080fd5b600073ffffffffffffffffffffffffffffffffffffffff16600660009054906101000a900473ffffffffffffffffffffffffffffffffffffffff1673ffffffffffffffffffffffffffffffffffffffff167f8be0079c531659141344cd1fd0a4f28419497f9722a3daafe3b4186f6b6457e060405160405180910390a36000600660006101000a81548173ffffffffffffffffffffffffffffffffffffffff021916908373ffffffffffffffffffffffffffffffffffffffff160217905550565b6000600660009054906101000a900473ffffffffffffffffffffffffffffffffffffffff16905090565b6000600660009054906101000a900473ffffffffffffffffffffffffffffffffffffffff1673ffffffffffffffffffffffffffffffffffffffff163373ffffffffffffffffffffffffffffffffffffffff1614905090565b60075481565b6106f6610690565b151561070157600080fd5b806000600481111561070f57fe5b1415610749576000600660146101000a81548160ff0219169083600481111561073457fe5b02179055506107446110096109ac565b610868565b806001600481111561075757fe5b1415610791576001600660146101000a81548160ff0219169083600481111561077c57fe5b021790555061078c610f5e6109ac565b610867565b806002600481111561079f57fe5b14156107d9576002600660146101000a81548160ff021916908360048111156107c457fe5b02179055506107d4610eb36109ac565b610866565b80600360048111156107e757fe5b1415610821576003600660146101000a81548160ff0219169083600481111561080c57fe5b021790555061081c610e086109ac565b610865565b8060048081111561082e57fe5b1415610864576004600660146101000a81548160ff0219169083600481111561085357fe5b0217905550610863610d5d6109ac565b5b5b5b5b5b50565b60085481565b600660149054906101000a900460ff1681565b61088c610690565b151561089757600080fd5b6108a0816109b6565b50565b6000600160009054906101000a900473ffffffffffffffffffffffffffffffffffffffff16905090565b6108d78282610ab2565b60075481101515156108e857600080fd5b5050565b600061090360035483610aea90919063ffffffff16565b9050919050565b600080828401905083811015151561092157600080fd5b8091505092915050565b6109358282610b28565b5050565b5050565b600260009054906101000a900473ffffffffffffffffffffffffffffffffffffffff1673ffffffffffffffffffffffffffffffffffffffff166108fc349081150290604051600060405180830381858888f193505050501580156109a5573d6000803e3d6000fd5b50565b5050565b8060038190555050565b600073ffffffffffffffffffffffffffffffffffffffff168173ffffffffffffffffffffffffffffffffffffffff16141515156109f257600080fd5b8073ffffffffffffffffffffffffffffffffffffffff16600660009054906101000a900473ffffffffffffffffffffffffffffffffffffffff1673ffffffffffffffffffffffffffffffffffffffff167f8be0079c531659141344cd1fd0a4f28419497f9722a3daafe3b4186f6b6457e060405160405180910390a380600660006101000a81548173ffffffffffffffffffffffffffffffffffffffff021916908373ffffffffffffffffffffffffffffffffffffffff16021790555050565b610abc8282610c1c565b600554610ad982610acb61054a565b61090a90919063ffffffff16565b11151515610ae657600080fd5b5050565b600080831415610afd5760009050610b22565b60008284029050828482811515610b1057fe5b04141515610b1d57600080fd5b809150505b92915050565b610b306108a3565b73ffffffffffffffffffffffffffffffffffffffff166340c10f1983836040518363ffffffff167c0100000000000000000000000000000000000000000000000000000000028152600401808373ffffffffffffffffffffffffffffffffffffffff1673ffffffffffffffffffffffffffffffffffffffff16815260200182815260200192505050602060405180830381600087803b158015610bd257600080fd5b505af1158015610be6573d6000803e3d6000fd5b505050506040513d6020811015610bfc57600080fd5b81019080805190602001909291905050501515610c1857600080fd5b5050565b600073ffffffffffffffffffffffffffffffffffffffff168273ffffffffffffffffffffffffffffffffffffffff1614151515610c5857600080fd5b60008114151515610c6857600080fd5b505056fea165627a7a72305820af73722b378156bb0eb82445c257aa2a6d7248b22aceae7c0f8ae2ae28a638de0029",
  "source": "pragma solidity ^0.5.0;\n\nimport \"../openzeppelin-solidity/contracts/crowdsale/Crowdsale.sol\";\nimport \"../openzeppelin-solidity/contracts/crowdsale/emission/MintedCrowdsale.sol\";\nimport \"../openzeppelin-solidity/contracts/crowdsale/validation/CappedCrowdsale.sol\";\nimport \"../openzeppelin-solidity/contracts/ownership/Ownable.sol\";\n\n// Do not alter the order of the imported extensions\n// Got no idea why Linerization error pops out for changing order\ncontract SlotheeTokenCrowdsale is Crowdsale, MintedCrowdsale, CappedCrowdsale, Ownable {\n  // Crowdsale contructor\n  // Capped crowdsale constructor\n  constructor(uint256 rate, address payable wallet, IERC20 token, uint256 cap) \n    Crowdsale(rate, wallet, token)\n    CappedCrowdsale(cap)\n    public { }\n\n\n   /* Crowdsale stages */\n   enum CrowdsaleStages { PreSale, StageOne, StageTwo, StageThree, StageFour }\n   \n   // Crowdsale stage\n   CrowdsaleStages public stage = CrowdsaleStages.PreSale;\n\n   /* Only allow admin to chage the crowdsale stages\n    * This change in stage is initiated manually by admin \n    * Rate is fixed randomly\n    * DONT FORGET TO CHANGE RATE WHILE PRODUCTION DEPLOYMENT *MAN*\n    */\n   function setCrowdsaleStage(uint stages) public onlyOwner {\n     // Presale\n     if (uint(CrowdsaleStages.PreSale) == stages) {\n       stage = CrowdsaleStages.PreSale;\n       setRate(4105);\n     }\n     // Stage One\n     else if (uint(CrowdsaleStages.StageOne) == stages) {\n       stage = CrowdsaleStages.StageOne;\n       setRate(3934);\n     }\n     // Stage Two\n     else if (uint(CrowdsaleStages.StageTwo) == stages) {\n       stage = CrowdsaleStages.StageTwo;\n       setRate(3763);\n     }\n     // Satge Three\n     else if (uint(CrowdsaleStages.StageThree) == stages) {\n       stage = CrowdsaleStages.StageThree;\n       setRate(3592);\n     }\n     // Stage Four\n     else if (uint(CrowdsaleStages.StageFour) == stages) {\n       stage = CrowdsaleStages.StageFour;\n       setRate(3421);\n     }\n  }\n\n\n  \n  /* Setting max and min invesment an investor can contribute\n   * Maximum Contribution Limit = 30 Ether\n   * Minimum Contribution Limit = 0.002 Ether\n   * \n   * This Limit is set not based on per transaction basics but\n   * on total transaction made by a individual account \n   */\n   uint256 public investor_min_cap = 2000000000000000;         // 0.002 * 10^18  --> Expressed in Wei\n   uint256 public investor_max_cap = 30000000000000000000;     // 30 * 10^18\n    \n  /* Extending _perValidatePurchase() function to revoke transaction if invesment amount \n   * is out of min and max cap\n   */\n  function _preValidatePurchase(address beneficiary, uint256 weiAmount) internal view { \n    super._preValidatePurchase(beneficiary, weiAmount);\n\n    // Custom code begins\n    // Initial  limit for buying tokens is set\n    require(weiAmount >= investor_min_cap);\n    // Shit this error always comes while applying maximum investor limit\n    // PENDING CODE \n  }\n  \n}\n",
  "sourcePath": "/home/beach/code_base/contracts/flux_token/contracts/SlotheetokenCrowdsale.sol",
  "compiler": {
    "name": "solc",
    "version": "0.5.0+commit.1d4f565a.Emscripten.clang"
  },
  "schemaVersion": "3.0.2",
  "updatedAt": "2019-03-06T08:10:50.688Z",
  "devdoc": {
    "methods": {
      "buyTokens(address)": {
        "details": "low level token purchase ***DO NOT OVERRIDE*** This function has a non-reentrancy guard, so it shouldn't be called by another `nonReentrant` function.",
        "params": {
          "beneficiary": "Recipient of the token purchase"
        }
      },
      "cap()": {
        "return": "the cap of the crowdsale."
      },
      "capReached()": {
        "details": "Checks whether the cap has been reached.",
        "return": "Whether the cap was reached"
      },
      "isOwner()": {
        "return": "true if `msg.sender` is the owner of the contract."
      },
      "owner()": {
        "return": "the address of the owner."
      },
      "rate()": {
        "return": "the number of token units a buyer gets per wei."
      },
      "renounceOwnership()": {
        "details": "Allows the current owner to relinquish control of the contract."
      },
      "token()": {
        "return": "the token being sold."
      },
      "transferOwnership(address)": {
        "details": "Allows the current owner to transfer control of the contract to a newOwner.",
        "params": {
          "newOwner": "The address to transfer ownership to."
        }
      },
      "wallet()": {
        "return": "the address where funds are collected."
      },
      "weiRaised()": {
        "return": "the amount of wei raised."
      }
    }
  },
  "userdoc": {
    "methods": {
      "renounceOwnership()": {
        "notice": "Renouncing to ownership will leave the contract without an owner. It will not be possible to call the functions with the `onlyOwner` modifier anymore."
      }
    }
  }
}